:0200000280007C
:1000000058340020A9010800A5010800A501080036
:10001000A5010800A5010800A501080000000000D6
:10002000000000000000000000000000A501080022
:10003000A501080000000000A5010800A5010800B6
:10004000A5010800A5010800A5010800A5010800F8
:10005000A5010800A5010800A5010800A5010800E8
:10006000A5010800A501080000000000A501080086
:10007000A5010800A5010800A50108000000000076
:1000800000000000A5010800A5010800A501080066
:10009000A5010800A5010800A5010800A5010800A8
:1000A000A501080000000000A5010800A501080046
:1000B000A5010800A5010800A5010800A501080088
:1000C000A5010800A5010800A5010800A501080078
:1000D000A5010800A5010800A5010800A501080068
:1000E000A5010800A5010800A5010800A501080058
:1000F000A501080008B50548054B191A062900D8BE
:1001000008BD044A002AFBD09047F9E73C050800E7
:100110003F0508000000000008B50748074B191A02
:100120008A1002EBD273591000D108BD044A002A8C
:10013000FBD09047F9E700BF3C0508003C050800EC
:100140000000000010B5064C237843B9FFF7D2FF3A
:10015000044810B10448AFF300800121217010BDA4
:1001600038040020000000003C05080008B5084BDA
:100170001BB108480849AFF300800848016811B175
:10018000074A02B19047BDE80840FFF7C5BF00BF6E
:10019000000000003C0508003C0400203C0508006D
:1001A00000000000FEE700BF38B540F20003C2F2D5
:1001B000000340F23C52C0F208029A4203D03A488F
:1001C0003A49814204D33A4B3A4A9A4225D342E013
:1001D000394D3A4C631B23F003054FF0000340F206
:1001E0000002C2F2000240F23C51C0F2080105F1E7
:1001F0000400C5F380045D589D5003F1040383425D
:1002000048D1E0E75D589D5003F104035C589C50D1
:1002100003F104038342F5D1D5E7294D2949481B51
:1002200020F0030440F23843C2F20003E2184FF01A
:100230000001501BA0F10400C0F3800445F8041F26
:10024000954220D107E005F10403696005F1080536
:1002500059609542F7D140F20005C0F2080525F03B
:10026000604222F07F014FF46D40CEF200008160C9
:1002700040F2A544C0F20804A04740F2CD33C0F2DA
:1002800008039847FEE7002CDDD045F8041F95428F
:10029000D9D1E0E7002CB5D05C589C5003F10403A1
:1002A0008342AFD18FE700BF380400200000002058
:1002B0005404002038040020040000203B040020E7
:1002C000340400204F0400204FF42063C4F20E03D6
:1002D0004FF480621A604FF44060C4F20E00026076
:1002E0004FF4C061C4F20E010B6A13F0807F10D18D
:1002F0004FF4C060C4F20E0040F60902C0F23702AB
:1003000002624FF4C061C4F20E018B6E13F0010F54
:10031000FBD04FF4C060C4F20E0040F60902C0F2F8
:10032000371202624FF4C061C4F20E018B6E13F4F7
:10033000803FFBD04FF4C060C4F20E00026B22F08D
:10034000030141F0010303634FF4C060C4F20E00E7
:10035000826E12F0080FFBD04FF4C061C4F20E01A0
:1003600043F60173C2F20D038B624FF4C060C4F216
:100370000E00826E12F0020FFBD04FF4C061C4F287
:100380000E014FF011030B634FF4C060C4F20E0076
:10039000826E12F0080FFBD04FF4C061C4F20E0160
:1003A0004FF012030B634FF4C060C4F20E00826E74
:1003B00012F0080FFBD04FF43D41C0F2015140F262
:1003C0000003C2F200031960704700BF08B540F295
:1003D000C923C0F208039847FEE700BF2DE9F843A0
:1003E0009846234B06461C680F46D4F848019146B0
:1003F00018B904F5A670C4F8480141681F2916DD34
:100400001C4818B94FF0FF30BDE8F8834FF4C870AE
:10041000AFF300800028F5D0D4F8482100254560CE
:100420000260C4F84801C0F88851C0F88C51B6B1D8
:100430004468012202FA04F2D0F8881100EB840328
:100440001143022EC3F88890C0F888111C46C3F8E7
:10045000088104D1D0F88C311A43C0F88C2141684E
:100460008B1C4A1C40F8237042600020BDE8F883D2
:10047000100508000000000070B5084B084C00256E
:10048000E01A841003EB8406043D1CB172599047B6
:10049000013CF9E7BDE8704000F048B838050800B5
:1004A0003C05080038B50E4D0E4B0024E81A8510A7
:1004B000AC4205D00B4951F8242090470134F7E7AE
:1004C00000F02AF80849094A541AA5100024AC4241
:1004D00005D0054B53F8240080470134F7E738BDB9
:1004E0002405080024050800240508002C05080040
:1004F000024B13B1024800F005B87047000000003D
:10050000790408000146002002460346FFF766BF53
:100510001000002043000000F8B500BFF8BC08BC84
:100520009E467047F10408006D010800F8B500BF51
:0C053000F8BC08BC9E467047450108005E
:10053C0000093D0000000000100000200000000039
:10054C0000000000FC02002064030020CC0300200B
:10055C00000000000000000000000000000000008F
:10056C00000000000000000000000000000000007F
:10057C00000000001405080000000000000000004E
:10058C00000000000000000000000000000000005F
:10059C00000000000000000000000000000000004F
:1005AC00000000000000000000000000000000003F
:1005BC00000000000000000000000000000000002F
:1005CC00000000000000000000000000000000001F
:1005DC00000000000000000000000000000000000F
:1005EC0000000000000000000100000000000000FE
:1005FC000E33CDAB34126DE6ECDE05000B000000C3
:10060C0000000000000000000000000000000000DE
:10061C0000000000000000000000000000000000CE
:10062C0000000000000000000000000000000000BE
:10063C0000000000000000000000000000000000AE
:00000001FF
